{
  "_format": "hh-sol-artifact-1",
  "contractName": "BegContract",
  "sourceName": "contracts/BegContract.sol",
  "abi": [
    {
      "inputs": [],
      "stateMutability": "nonpayable",
      "type": "constructor"
    },
    {
      "inputs": [],
      "name": "getTotalBegs",
      "outputs": [
        {
          "internalType": "uint256",
          "name": "",
          "type": "uint256"
        }
      ],
      "stateMutability": "view",
      "type": "function"
    },
    {
      "inputs": [],
      "name": "increment",
      "outputs": [],
      "stateMutability": "nonpayable",
      "type": "function"
    }
  ],
  "bytecode": "0x608060405234801561001057600080fd5b5061003c6040518060600160405280602681526020016107616026913961004160201b6101491760201c565b6101c4565b6100dd816040516024016100559190610142565b6040516020818303038152906040527f41304fac000000000000000000000000000000000000000000000000000000007bffffffffffffffffffffffffffffffffffffffffffffffffffffffff19166020820180517bffffffffffffffffffffffffffffffffffffffffffffffffffffffff83818316178352505050506100e060201b60201c565b50565b60008151905060006a636f6e736f6c652e6c6f679050602083016000808483855afa5050505050565b600061011482610164565b61011e818561016f565b935061012e818560208601610180565b610137816101b3565b840191505092915050565b6000602082019050818103600083015261015c8184610109565b905092915050565b600081519050919050565b600082825260208201905092915050565b60005b8381101561019e578082015181840152602081019050610183565b838111156101ad576000848401525b50505050565b6000601f19601f8301169050919050565b61058e806101d36000396000f3fe608060405234801561001057600080fd5b50600436106100365760003560e01c8063d09de08a1461003b578063ffcc388214610045575b600080fd5b610043610063565b005b61004d6100fe565b60405161005a919061041c565b60405180910390f35b60016000808282546100759190610453565b925050819055506100bb6040518060400160405280601d81526020017f626567436f756e7420696e6372656d656e7465642062793a202573200a000000815250336101e2565b6100fc6040518060400160405280601581526020017f626567436f756e74206973206e6f773a202564200a000000000000000000000081525060005461027e565b565b60006101416040518060400160405280601881526020017f546f74616c2042656720436f756e742069733a202564200a000000000000000081525060005461027e565b600054905090565b6101df8160405160240161015d919061039a565b6040516020818303038152906040527f41304fac000000000000000000000000000000000000000000000000000000007bffffffffffffffffffffffffffffffffffffffffffffffffffffffff19166020820180517bffffffffffffffffffffffffffffffffffffffffffffffffffffffff838183161783525050505061031a565b50565b61027a82826040516024016101f89291906103bc565b6040516020818303038152906040527f319af333000000000000000000000000000000000000000000000000000000007bffffffffffffffffffffffffffffffffffffffffffffffffffffffff19166020820180517bffffffffffffffffffffffffffffffffffffffffffffffffffffffff838183161783525050505061031a565b5050565b61031682826040516024016102949291906103ec565b6040516020818303038152906040527f9710a9d0000000000000000000000000000000000000000000000000000000007bffffffffffffffffffffffffffffffffffffffffffffffffffffffff19166020820180517bffffffffffffffffffffffffffffffffffffffffffffffffffffffff838183161783525050505061031a565b5050565b60008151905060006a636f6e736f6c652e6c6f679050602083016000808483855afa5050505050565b61034c816104a9565b82525050565b600061035d82610437565b6103678185610442565b93506103778185602086016104e5565b61038081610547565b840191505092915050565b610394816104db565b82525050565b600060208201905081810360008301526103b48184610352565b905092915050565b600060408201905081810360008301526103d68185610352565b90506103e56020830184610343565b9392505050565b600060408201905081810360008301526104068185610352565b9050610415602083018461038b565b9392505050565b6000602082019050610431600083018461038b565b92915050565b600081519050919050565b600082825260208201905092915050565b600061045e826104db565b9150610469836104db565b9250827fffffffffffffffffffffffffffffffffffffffffffffffffffffffffffffffff0382111561049e5761049d610518565b5b828201905092915050565b60006104b4826104bb565b9050919050565b600073ffffffffffffffffffffffffffffffffffffffff82169050919050565b6000819050919050565b60005b838110156105035780820151818401526020810190506104e8565b83811115610512576000848401525b50505050565b7f4e487b7100000000000000000000000000000000000000000000000000000000600052601160045260246000fd5b6000601f19601f830116905091905056fea26469706673582212202d95f818261d55de9abbd82379440a5b40d13da787425ef29555a3bb3c30c6b664736f6c63430008000033436f6e74726163742072756e6e696e6720696e20636f6e736f6c652062696e6720626f6e670a",
  "linkReferences": {},
  "deployedLinkReferences": {}
}