{
  "_format": "hh-sol-artifact-1",
  "contractName": "BegContract",
  "sourceName": "contracts/BegContract.sol",
  "abi": [
    {
      "inputs": [],
      "stateMutability": "nonpayable",
      "type": "constructor"
    },
    {
      "anonymous": false,
      "inputs": [
        {
          "indexed": true,
          "internalType": "address",
          "name": "from",
          "type": "address"
        },
        {
          "indexed": false,
          "internalType": "uint256",
          "name": "timestamp",
          "type": "uint256"
        },
        {
          "indexed": false,
          "internalType": "string",
          "name": "message",
          "type": "string"
        }
      ],
      "name": "NewBeg",
      "type": "event"
    },
    {
      "inputs": [],
      "name": "getAllBegs",
      "outputs": [
        {
          "components": [
            {
              "internalType": "address",
              "name": "begger",
              "type": "address"
            },
            {
              "internalType": "string",
              "name": "message",
              "type": "string"
            },
            {
              "internalType": "uint256",
              "name": "timestamp",
              "type": "uint256"
            }
          ],
          "internalType": "struct Beg[]",
          "name": "",
          "type": "tuple[]"
        }
      ],
      "stateMutability": "view",
      "type": "function"
    },
    {
      "inputs": [],
      "name": "getTotalBegs",
      "outputs": [
        {
          "internalType": "uint256",
          "name": "",
          "type": "uint256"
        }
      ],
      "stateMutability": "view",
      "type": "function"
    },
    {
      "inputs": [
        {
          "internalType": "string",
          "name": "_message",
          "type": "string"
        }
      ],
      "name": "increment",
      "outputs": [],
      "stateMutability": "nonpayable",
      "type": "function"
    }
  ],
  "bytecode": "0x60806040523480156200001157600080fd5b506200004160405180606001604052806026815260200162000e3a602691396200004760201b620003f21760201c565b620001db565b620000e7816040516024016200005e919062000154565b6040516020818303038152906040527f41304fac000000000000000000000000000000000000000000000000000000007bffffffffffffffffffffffffffffffffffffffffffffffffffffffff19166020820180517bffffffffffffffffffffffffffffffffffffffffffffffffffffffff8381831617835250505050620000ea60201b60201c565b50565b60008151905060006a636f6e736f6c652e6c6f679050602083016000808483855afa5050505050565b6000620001208262000178565b6200012c818562000183565b93506200013e81856020860162000194565b6200014981620001ca565b840191505092915050565b6000602082019050818103600083015262000170818462000113565b905092915050565b600081519050919050565b600082825260208201905092915050565b60005b83811015620001b457808201518184015260208101905062000197565b83811115620001c4576000848401525b50505050565b6000601f19601f8301169050919050565b610c4f80620001eb6000396000f3fe608060405234801561001057600080fd5b50600436106100415760003560e01c806348aa558d146100465780635fab88e314610064578063ffcc388214610080575b600080fd5b61004e61009e565b60405161005b91906108bf565b60405180910390f35b61007e600480360381019061007991906106f7565b6101ef565b005b6100886103a7565b6040516100959190610963565b60405180910390f35b60606001805480602002602001604051908101604052809291908181526020016000905b828210156101e657838290600052602060002090600302016040518060600160405290816000820160009054906101000a900473ffffffffffffffffffffffffffffffffffffffff1673ffffffffffffffffffffffffffffffffffffffff1673ffffffffffffffffffffffffffffffffffffffff16815260200160018201805461014b90610b49565b80601f016020809104026020016040519081016040528092919081815260200182805461017790610b49565b80156101c45780601f10610199576101008083540402835291602001916101c4565b820191906000526020600020905b8154815290600101906020018083116101a757829003601f168201915b50505050508152602001600282015481525050815260200190600101906100c2565b50505050905090565b60016000808282546102019190610a75565b925050819055506102476040518060400160405280601d81526020017f626567436f756e7420696e6372656d656e7465642062793a202573200a0000008152503361048b565b6102886040518060400160405280601581526020017f626567436f756e74206973206e6f773a202564200a0000000000000000000000815250600054610527565b600160405180606001604052803373ffffffffffffffffffffffffffffffffffffffff16815260200183815260200142815250908060018154018082558091505060019003906000526020600020906003020160009091909190915060008201518160000160006101000a81548173ffffffffffffffffffffffffffffffffffffffff021916908373ffffffffffffffffffffffffffffffffffffffff16021790555060208201518160010190805190602001906103479291906105ec565b506040820151816002015550503373ffffffffffffffffffffffffffffffffffffffff167f9e71c3eee13caf4abce87e310a64e59aed6e40bee1767fe4c1fcb69b3ba64758428360405161039c92919061097e565b60405180910390a250565b60006103ea6040518060400160405280601881526020017f546f74616c2042656720436f756e742069733a202564200a0000000000000000815250600054610527565b600054905090565b6104888160405160240161040691906108e1565b6040516020818303038152906040527f41304fac000000000000000000000000000000000000000000000000000000007bffffffffffffffffffffffffffffffffffffffffffffffffffffffff19166020820180517bffffffffffffffffffffffffffffffffffffffffffffffffffffffff83818316178352505050506105c3565b50565b61052382826040516024016104a1929190610903565b6040516020818303038152906040527f319af333000000000000000000000000000000000000000000000000000000007bffffffffffffffffffffffffffffffffffffffffffffffffffffffff19166020820180517bffffffffffffffffffffffffffffffffffffffffffffffffffffffff83818316178352505050506105c3565b5050565b6105bf828260405160240161053d929190610933565b6040516020818303038152906040527f9710a9d0000000000000000000000000000000000000000000000000000000007bffffffffffffffffffffffffffffffffffffffffffffffffffffffff19166020820180517bffffffffffffffffffffffffffffffffffffffffffffffffffffffff83818316178352505050506105c3565b5050565b60008151905060006a636f6e736f6c652e6c6f679050602083016000808483855afa5050505050565b8280546105f890610b49565b90600052602060002090601f01602090048101928261061a5760008555610661565b82601f1061063357805160ff1916838001178555610661565b82800160010185558215610661579182015b82811115610660578251825591602001919060010190610645565b5b50905061066e9190610672565b5090565b5b8082111561068b576000816000905550600101610673565b5090565b60006106a261069d846109df565b6109ae565b9050828152602081018484840111156106ba57600080fd5b6106c5848285610b07565b509392505050565b600082601f8301126106de57600080fd5b81356106ee84826020860161068f565b91505092915050565b60006020828403121561070957600080fd5b600082013567ffffffffffffffff81111561072357600080fd5b61072f848285016106cd565b91505092915050565b60006107448383610851565b905092915050565b61075581610acb565b82525050565b61076481610acb565b82525050565b600061077582610a1f565b61077f8185610a42565b93508360208202850161079185610a0f565b8060005b858110156107cd57848403895281516107ae8582610738565b94506107b983610a35565b925060208a01995050600181019050610795565b50829750879550505050505092915050565b60006107ea82610a2a565b6107f48185610a53565b9350610804818560208601610b16565b61080d81610c08565b840191505092915050565b600061082382610a2a565b61082d8185610a64565b935061083d818560208601610b16565b61084681610c08565b840191505092915050565b6000606083016000830151610869600086018261074c565b506020830151848203602086015261088182826107df565b915050604083015161089660408601826108a1565b508091505092915050565b6108aa81610afd565b82525050565b6108b981610afd565b82525050565b600060208201905081810360008301526108d9818461076a565b905092915050565b600060208201905081810360008301526108fb8184610818565b905092915050565b6000604082019050818103600083015261091d8185610818565b905061092c602083018461075b565b9392505050565b6000604082019050818103600083015261094d8185610818565b905061095c60208301846108b0565b9392505050565b600060208201905061097860008301846108b0565b92915050565b600060408201905061099360008301856108b0565b81810360208301526109a58184610818565b90509392505050565b6000604051905081810181811067ffffffffffffffff821117156109d5576109d4610bd9565b5b8060405250919050565b600067ffffffffffffffff8211156109fa576109f9610bd9565b5b601f19601f8301169050602081019050919050565b6000819050602082019050919050565b600081519050919050565b600081519050919050565b6000602082019050919050565b600082825260208201905092915050565b600082825260208201905092915050565b600082825260208201905092915050565b6000610a8082610afd565b9150610a8b83610afd565b9250827fffffffffffffffffffffffffffffffffffffffffffffffffffffffffffffffff03821115610ac057610abf610b7b565b5b828201905092915050565b6000610ad682610add565b9050919050565b600073ffffffffffffffffffffffffffffffffffffffff82169050919050565b6000819050919050565b82818337600083830152505050565b60005b83811015610b34578082015181840152602081019050610b19565b83811115610b43576000848401525b50505050565b60006002820490506001821680610b6157607f821691505b60208210811415610b7557610b74610baa565b5b50919050565b7f4e487b7100000000000000000000000000000000000000000000000000000000600052601160045260246000fd5b7f4e487b7100000000000000000000000000000000000000000000000000000000600052602260045260246000fd5b7f4e487b7100000000000000000000000000000000000000000000000000000000600052604160045260246000fd5b6000601f19601f830116905091905056fea26469706673582212207599d0d0fab3f7444b63e222e29873113890c39acd8824f87ec0460b5905c15564736f6c63430008000033436f6e74726163742072756e6e696e6720696e20636f6e736f6c652062696e6720626f6e670a",
  "linkReferences": {},
  "deployedLinkReferences": {}
}